20200601 081 00014 00000000000000300037 80 00000000033646346679 111111111111111111111111111111 000000000260008 000000000031179 000000000000000 000000000000000 000000000000000 000000000000000 000000000000000 000000000000000 PES 0000000001 1 0 000000000039714 000000000000000 00000000000000000000000000




2020060108100014000000000000000301568000000000033646346679GNC ROSARIO S.A.              000000000260060000000000038175000000000000000000000000000000000000000000000000000000000000000000000000000000000000000000PES00010000001000000000003850900000000000000000000000000000000000000000
2020060108100014000000000000000301728000000000033646346679GNC ROSARIO S.A.              000000000232012000000000027822000000000000000000000000000000000000000000000000000000000000000000000000000000000000000000PES00010000001000000000003543800000000000000000000000000000000000000000
2020060108100014000000000000000303778000000000033646346679GNC ROSARIO S.A.              000000000130007000000000019084000000000000000000000000000000000000000000000000000000000000000000000000000000000000000000PES00010000001000000000001925100000000000000000000000000000000000000000
2020060108100014000000000000000306438000000000033646346679GNC ROSARIO S.A.              000000000229082000000000027468000000000000000000000000000000000000000000000000000000000000000000000000000000000000000000PES00010000001000000000003498700000000000000000000000000000000000000000
2020060108100014000000000000000307878000000000033646346679GNC ROSARIO S.A.              000000000265009000000000038902000000000000000000000000000000000000000000000000000000000000000000000000000000000000000000PES00010000001000000000003924200000000000000000000000000000000000000000
2020060108100014000000000000000311418000000000033646346679GNC ROSARIO S.A.              000000000301032000000000036099000000000000000000000000000000000000000000000000000000000000000000000000000000000000000000PES00010000001000000000004598000000000000000000000000000000000000000000
2020060108100014000000000000000311758000000000033646346679GNC ROSARIO S.A.              000000000227045000000000033329000000000000000000000000000000000000000000000000000000000000000000000000000000000000000000PES00010000001000000000003362000000000000000000000000000000000000000000
2020060108100014000000000000000314128000000000033646346679GNC ROSARIO S.A.              000000000180002000000000021585000000000000000000000000000000000000000000000000000000000000000000000000000000000000000000PES00010000001000000000002749400000000000000000000000000000000000000000
2020060100100017000000000000000660468000000000030690929364ORLANDI IND                   000000001434927000000000000000000000000000000000000000000000000000000000000000000000000000000000000000000000000000000000PES00010000001000000000024903700000000000000000000000000000000000000000
2020060100100002000000000000000352448000000000030712203559RAZZINI MATERIALES            000000041000001000000000000000000000000000000000000000000000000000000000000000000000000000000000000000000000000000000000PES00010000001000000000711570300000000000000000000000000000000000000000
2020060108200678000000000000000026288000000000030655200173API                           000000000004500000000000000000000000000000000000000000000000000000000000000000000000000000000000000000000000000000000000PES00010000001000000000000000000000000000000000000000000000000000000000
2020060101500003000000000000000002498000000000027140873956MARCELA VALENTI               000000000650000000000000000000000000000000000000000000000000000000000000000000000000000000000000000000000000000000000000PES00010000001000000000000000000000000000000000000000000000000000000000
2020060101500003000000000000000002648000000000027140873956MARCELA VALENTI               000000000650000000000000000000000000000000000000000000000000000000000000000000000000000000000000000000000000000000000000PES00010000001000000000000000000000000000000000000000000000000000000000
2020060108100014000000000000000297908000000000033646346679GNC ROSARIO S.A.              000000000260040000000000038173000000000000000000000000000000000000000000000000000000000000000000000000000000000000000000PES00010000001000000000003850600000000000000000000000000000000000000000
2020060103900794000000000000000515128000000000030576095577BCO. MACRO                    000000000100430000000000000000000000000000000000000000000000000000000000000000000000000000000000000000000000000000000000PES00010000001000000000001743000000000000000000000000000000000000000000
